S0230000556C747261736F6E696353656E736F72496E746572666163696E672E73726563F9
S11300000C9472000C9493000C9493000C94930041
S11300100C9493000C9493000C9493000C94930010
S11300200C9493000C9493000C9493000C94930000
S11300300C9493000C9493000C9493000C949300F0
S11300400C9493000C9493000C9493000C949300E0
S11300500C9493000C9493000C9493000C949300D0
S11300600C9493000C9493000C9493000C949300C0
S11300700C9493000C9493000C9493000C949300B0
S11300800C9493000C9493000C9493000C949300A0
S11300900C9493000C9493000C9493000C94930090
S11300A00C9493000C9493000C9493000C94930080
S11300B00C9493000C9493000C9493000C94930070
S11300C00C9493000C9493000C9493000C94930060
S11300D00C9493000C9493000C9493000C94930050
S11300E00C94930011241FBECFEFD1E2DEBFCDBF2D
S11300F000E00CBF12E0A0E0B2E0E4ECF9E000E0C4
S11301000BBF02C007900D92A632B107D9F722E0C7
S1130110A6E2B2E001C01D92A433B207E1F70E9447
S113012045030C94E0040C94000087B1876F87B9F1
S113013088B1887088B9089586E69EE00197F1F742
S113014000004098419880E388B9429AEFEFF7E4C1
S11301503197F1F700C000004298E6E6FEE03197DF
S1130160F1F700004098419888B9429AEFEFF7E41C
S11301703197F1F700C000004298E6E6FEE03197BF
S1130180F1F700004098419888B9429A8FEF97E4BC
S11301900197F1F700C000004298E6E6FEE03197CF
S11301A0F1F700004098419880E288B9429A8FEFB5
S11301B097E40197F1F700C000004298089598B1C0
S11301C09F7098B998B1282F207F922B98B94098A6
S11301D04198429AEFEFF7E43197F1F700C000003D
S11301E0429898B19F7098B998B18295807F892B75
S11301F088B940984198429A8FEF97E40197F1F7B4
S113020000C00000429808950E9495000E949C003E
S113021086E69EE00197F1F7000088E20E94DF0085
S113022081E00E94DF0086E00E94DF008EE00E94F1
S1130230DF0080E80E94DF00089598B19F7098B9AC
S113024098B1282F207F922B98B9409A4198429ACE
S1130250EFEFF7E43197F1F700C00000429898B14E
S11302609F7098B998B18295807F892B88B9409AFC
S11302704198429A8FEF97E40197F1F700C000008C
S11302804298089580E80E94DF000895823071F05A
S113029018F4813031F00895833069F0843081F0AE
S11302A008958FE7860F0E94DF0008958FEB860F75
S11302B00E94DF00089583E9860F0E94DF000895FD
S11302C083ED860F0E94DF000895CF93DF93EC0146
S11302D08881882331F021960E941D018991811122
S11302E0FBCFDF91CF9108950F931F93CF93DF93AB
S11302F08A01E901882311F0611103C00E944201BF
S113030002C00E944601C530D10509F0DFC0980142
S1130310329522952F7023273F702327A7E4B3E05B
S11303200E94D1049695879596958795969587957D
S1130330C09690932702809326020E941D01980183
S1130340369527953695279536952795A5ECB0E2F1
S11303500E94D104AC01529542954F7045275F70BD
S1130360452750932B0240932A029A01ADECBCEC32
S11303700E94D1049695879596958795969587952D
S11303809C01220F331F880F991F880F991F880F14
S1130390991F820F931F9A01281B390BC901C0961C
S11303A090933302809332020E941D0103C0C33034
S11303B0D10591F598013695279536952795ABE7A4
S11303C0B4E10E94D104AC015695479550932B0299
S11303D040932A029A01ADECBCEC0E94D10496959C
S11303E0879596958795969587959C01220F331F3F
S11303F0880F991F880F991F880F991F820F931FC9
S11304009A01281B390BC901C09690932D02809341
S11304102C020E941D0104C0C230D10509F05BC04A
S11304209801ADECBCEC0E94D104AC015695479503
S1130430569547955695479550932B0240932A021B
S11304409A010E94D10496958795969587959695DD
S113045087959C01220F331F880F991F880F991FBE
S1130460880F991F820F931F9A01281B390BC9010A
S1130470C09690932902809328020E941D0198013E
S1130480ADECBCEC0E94D104969587959695879522
S1130490969587959C01220F331F880F991F880F0B
S11304A0991F880F991F820F931F9801281B390BDE
S11304B0C901C09690933102809330020E941D01BD
S11304C026976CF085E60E941D0109C0C430D10551
S11304D009F06DCF34CFC130D10591F7D0CFDF9182
S11304E0CF911F910F91089581E00E94DF0008953C
S11304F0519A5098599858980895599A81E38A9531
S1130500F1F700005998089580E090E0DC010AC0FA
S11305100196A11DB11D813B26E39207A105B105FA
S113052009F45DC04899F4CF0EC0AC01BD014F5F22
S11305305F4F6F4F7F4F803B9643A105B10508F095
S113054052C0DB01CA01489BF0CFF894489B1EC0FF
S1130550803B26E39207A105B10508F048C040EBB3
S113056056E360E070E0481B590B6A0B7B0B80E09C
S113057090E0DC0105C084179507A607B707D9F1F9
S11305800196A11DB11D4899F6CF03C080E090E00B
S1130590DC017894AC01BD01440F551F661F771F21
S11305A0840F951FA61FB71F880F991FAA1FBB1F73
S11305B0880F991FAA1FBB1F880F991FAA1FBB1F53
S11305C0BC01CD01605F7F4F8F4F9F4F2EE030E025
S11305D040E050E00E94AF04CA01B90108956FEFF2
S11305E07FEFCB0108956FEF7FEFCB0108956FEF9D
S11305F07FEFCB0108956FEF7FEFCB0108950E9449
S11306007D020E94840268362BE5720781059105FC
S113061040F08DE891E090932F0280932E0281E0C8
S113062008956F3F2FEF720782079207B1F00E947F
S1130630B40326E933E44BE05DE30E941A0420E0AE
S113064030E040E05FE30E941A040E948503709347
S11306502F0260932E0281E0089580E008950E94A5
S1130660FF02882329F080912E0290912F02089591
S113067080E090E008950E9404010E9478020895A9
S1130680F8940E943B03789408950E94400363E029
S113069081E00E94460180E092E00E94650164E0EE
S11306A082E00E9446018EE092E00E9465012FEFF5
S11306B08FEF99E5215080409040E1F700C00000A1
S11306C00E94740265E081E00E94460189E192E0A3
S11306D00E9465016AE082E00E94460182E292E0A3
S11306E00E9465010E942F0324E030E0AC0166E023
S11306F082E00E9474012FEF8FE796E12150804041
S11307009040E1F700C00000EDCF0E94F90388F0AB
S11307109F5798F0B92F9927B751B0F0E1F0660FC1
S1130720771F881F991F1AF0BA95C9F714C0B13002
S113073091F00E941304B1E008950C941304672F00
S1130740782F8827B85F39F0B93FCCF38695779531
S11307506795B395D9F73EF490958095709561951A
S11307607F4F8F4F9F4F0895E89409C097FB3EF445
S113077090958095709561957F4F8F4F9F4F9923EA
S1130780A9F0F92F96E9BB279395F6958795779568
S11307906795B795F111F8CFFAF4BB0F11F460FF28
S11307A01BC06F5F7F4F8F4F9F4F16C0882311F080
S11307B096E911C0772321F09EE8872F762F05C094
S11307C0662371F096E8862F70E060E02AF09A952F
S11307D0660F771F881FDAF7880F9695879597F924
S11307E0089557FD9058440F551F59F05F3F71F01D
S11307F04795880F97FB991F61F09F3F79F0879584
S11308000895121613061406551FF2CF4695F1DF0C
S113081008C0161617061806991FF1CF869571059C
S1130820610508940895E894BB2766277727CB01D0
S113083097F908950E942D040C949E040E9490043C
S113084038F00E94970420F0952311F00C9487044B
S11308500C948D0411240C9414040E94F10370F37D
S1130860959FC1F3950F50E0551F629FF001729F51
S1130870BB27F00DB11D639FAA27F00DB11DAA1F60
S1130880649F6627B00DA11D661F829F2227B00DAD
S1130890A11D621F739FB00DA11D621F839FA00D38
S11308A0611D221F749F3327A00D611D231F849F88
S11308B0600D211D822F762F6A2F11249F575040DF
S11308C09AF0F1F088234AF0EE0FFF1FBB1F661F5A
S11308D0771F881F91505040A9F79E3F510580F023
S11308E00C9487040C9414045F3FE4F3983ED4F30F
S11308F0869577956795B795F795E7959F5FC1F7C7
S1130900FE2B880F911D9695879597F9089597F971
S11309109F6780E870E060E008959FEF80EC0895A1
S113092000240A94161617061806090608950024CA
S11309300A9412161306140605060895092E039444
S1130940000C11F4882352F0BB0F40F4BF2B11F4B8
S113095060FF04C06F5F7F4F8F4F9F4F0895A1E2E8
S11309601A2EAA1BBB1BFD010DC0AA1FBB1FEE1F25
S1130970FF1FA217B307E407F50720F0A21BB30B70
S1130980E40BF50B661F771F881F991F1A9469F7EC
S113099060957095809590959B01AC01BD01CF0148
S11309A00895A29FB001B39FC001A39F700D811D44
S11309B01124911DB29F700D811D1124911D089564
S10709C0F894FFCFD5
S11309C4484143544F4245522D324B3139004F5024
S11309D4454E534F555243450044495354414E43A5
S10909E44500434D000034
S9030000FC
