S0230000556C747261736F6E696353656E736F72496E746572666163696E672E73726563F9
S11300000C9472000C9493000C9493000C94930041
S11300100C9493000C9493000C9493000C94930010
S11300200C9493000C9493000C9493000C94930000
S11300300C9493000C9493000C9493000C949300F0
S11300400C9493000C9493000C9493000C949300E0
S11300500C9493000C9493000C9493000C949300D0
S11300600C9493000C9493000C9493000C949300C0
S11300700C9493000C9493000C9493000C949300B0
S11300800C9493000C9493000C9493000C949300A0
S11300900C9493000C9493000C9493000C94930090
S11300A00C9493000C9493000C9493000C94930080
S11300B00C9493000C9493000C9493000C94930070
S11300C00C9493000C9493000C9493000C94930060
S11300D00C9493000C9493000C9493000C94930050
S11300E00C94930011241FBECFEFD1E2DEBFCDBF2D
S11300F000E00CBF12E0A0E0B2E0E0E8F8E000E0CD
S11301000BBF02C007900D92A632B107D9F722E0C7
S1130110A6E2B2E001C01D92A433B207E1F70E9447
S113012088020C943E040C94000087B1876F87B951
S113013088B1887088B9089586E69EE00197F1F742
S113014000004098419880E388B9429AEFEFF7E4C1
S11301503197F1F700C000004298E6E6FEE03197DF
S1130160F1F700004098419888B9429AEFEFF7E41C
S11301703197F1F700C000004298E6E6FEE03197BF
S1130180F1F700004098419888B9429A8FEF97E4BC
S11301900197F1F700C000004298E6E6FEE03197CF
S11301A0F1F700004098419880E288B9429A8FEFB5
S11301B097E40197F1F700C000004298089598B1C0
S11301C09F7098B998B1282F207F922B98B94098A6
S11301D04198429AEFEFF7E43197F1F700C000003D
S11301E0429898B19F7098B998B18295807F892B75
S11301F088B940984198429A8FEF97E40197F1F7B4
S113020000C00000429808950E9495000E949C003E
S113021086E69EE00197F1F7000088E20E94DF0085
S113022081E00E94DF0086E00E94DF008EE00E94F1
S1130230DF0080E80C94DF0098B19F7098B998B102
S1130240282F207F922B98B9409A4198429AEFEF39
S1130250F7E43197F1F700C00000429898B19F701D
S113026098B998B18295807F892B88B9409A419832
S1130270429A8FEF97E40197F1F700C0000042988B
S11302800895982F862F923059F018F4913031F058
S11302900895933039F0943039F00895815805C0A9
S11302A0815403C08D5601C08D520C94DF00CF934E
S11302B0DF93EC018991882319F00E941C01FACF85
S11302C0DF91CF91089581E00C94DF0080E80C94D5
S11302D0DF000F931F93CF93DF938A01E9018823F3
S11302E011F0611103C00E94660102C00E94410125
S11302F0C530D10509F061C0C80160E177E20E9410
S1130300EE03CB01C09690932702809326020E94AD
S11303101C01C80168EE73E00E94EE03CB017093E8
S11303202B0260932A026AE070E00E94EE03C096FA
S113033090933302809332020E941C01C80164E648
S113034070E00E94EE03CB0170932B0260932A02AB
S11303506AE070E00E94EE03C09690932D028093B1
S11303602C020E941C012AE030E0C801B9010E945D
S1130370EE03CB0170932B0260932A02B9010E9411
S1130380EE03C09690932902809328020E941C01D8
S1130390C8016AE070E00E94EE03C09690933102B7
S11303A0809330020E941C012697B4F085E6DF9109
S11303B0CF911F910F910C941C01C430D10509F405
S11303C0A8CFC330D10509F4B9CFC230D10559F251
S11303D0C130D10549F7DCCFDF91CF911F910F9147
S11303E00895519A5098599858980895599A81E3C4
S11303F08A95F1F7000059980895CF92DF92EF9211
S1130400FF9280E090E0DC01489B16C00196A11D9C
S1130410B11D813B26E39207A105B105A9F72FEF92
S11304203FEFA90132C00196A11DB11D813B66E3D6
S11304309607A105B10599F3489BF5CFF89420E000
S113044030E0A901489B12C06C017D01C20ED31E8D
S1130450E41EF51E60EBC61666E3D606E104F1045D
S1130460F0F62F5F3F4F4F4F5F4FECCF7894A8E1EA
S1130470B0E00E942404605F7F4F8F4F9F4F2EE0B7
S113048030E040E050E00E940204CA01B901FF904C
S1130490EF90DF90CF9008950E94F6010E94FD0135
S11304A068362BE572078105910538F08DE891E0F7
S11304B090932F0280932E0214C00E94F30226E927
S11304C033E44BE05DE30E94590320E030E040E078
S11304D05FE30E9459030E94C40270932F02609349
S11304E02E0281E008950E944C02882329F0809115
S11304F02E0290912F02089580E090E008950E94CA
S113050004010C94F101F8940E947F0278940895F8
S11305100E94830282E80E94DF0080E092E00E9451
S1130520570183EC0E94DF008EE092E00E945701A5
S11305302FEF8FEF99E5215080409040E1F700C004
S113054000000E94630184E80E94DF0089E192E0D8
S11305500E94570189EC0E94DF0082E292E00E942F
S113056057010E94730224E030E0AC0166E082E0AF
S11305700E9469012FEF8FE796E12150804090405F
S1130580E1F700C00000EDCF0E94380388F09F57C8
S113059098F0B92F9927B751B0F0E1F0660F771FA3
S11305A0881F991F1AF0BA95C9F714C0B13091F099
S11305B00E945203B1E008950C945203672F782FE0
S11305C08827B85F39F0B93FCCF38695779567955E
S11305D0B395D9F73EF490958095709561957F4FCA
S11305E08F4F9F4F0895E89409C097FB3EF4909570
S11305F08095709561957F4F8F4F9F4F9923A9F0F8
S1130600F92F96E9BB279395F69587957795679586
S1130610B795F111F8CFFAF4BB0F11F460FF1BC0CA
S11306206F5F7F4F8F4F9F4F16C0882311F096E95D
S113063011C0772321F09EE8872F762F05C066230B
S113064071F096E8862F70E060E02AF09A95660FC4
S1130650771F881FDAF7880F9695879597F908957D
S113066057FD9058440F551F59F05F3F71F047955F
S1130670880F97FB991F61F09F3F79F08795089544
S1130680121613061406551FF2CF4695F1DF08C063
S1130690161617061806991FF1CF86957105610580
S11306A008940895E894BB2766277727CB0197F928
S11306B008950E946C030C94DD030E94CF0338F06C
S11306C00E94D60320F0952311F00C94C6030C94D9
S11306D0CC0311240C9453030E94300370F3959FB0
S11306E0C1F3950F50E0551F629FF001729FBB2725
S11306F0F00DB11D639FAA27F00DB11DAA1F649FC1
S11307006627B00DA11D661F829F2227B00DA11D73
S1130710621F739FB00DA11D621F839FA00D611DF9
S1130720221F749F3327A00D611D231F849F600D1A
S1130730211D822F762F6A2F11249F5750409AF043
S1130740F1F088234AF0EE0FFF1FBB1F661F771FCF
S1130750881F91505040A9F79E3F510580F00C949A
S1130760C6030C9453035F3FE4F3983ED4F3869599
S113077077956795B795F795E7959F5FC1F7FE2B3A
S1130780880F911D9695879597F9089597F99F6716
S113079080E870E060E008959FEF80EC0895002405
S11307A00A941616170618060906089500240A94D2
S11307B012161306140605060895092E0394000C58
S11307C011F4882352F0BB0F40F4BF2B11F460FFE7
S11307D004C06F5F7F4F8F4F9F4F0895AA1BBB1BB1
S11307E051E107C0AA1FBB1FA617B70710F0A61B2D
S11307F0B70B881F991F5A95A9F780959095BC014E
S1130800CD010895A1E21A2EAA1BBB1BFD010DC048
S1130810AA1FBB1FEE1FFF1FA217B307E407F507AC
S113082020F0A21BB30BE40BF50B661F771F881F88
S1130830991F1A9469F760957095809590959B011E
S1130840AC01BD01CF0108950E942F04A59F900D16
S1130850B49F900DA49F800D911D11240895A29F13
S1130860B001B39FC001A39F700D811D1124911D80
S1130870B29F700D811D1124911D0895F894FFCF2E
S1130880484143544F4245522D324B3139004F5069
S1130890454E534F555243450044495354414E43EA
S10908A04500434D000079
S9030000FC
